{
  "contractName": "Funder",
  "abi": [
    {
      "inputs": [],
      "stateMutability": "nonpayable",
      "type": "constructor"
    },
    {
      "inputs": [],
      "name": "numOfFunders",
      "outputs": [
        {
          "internalType": "uint256",
          "name": "",
          "type": "uint256"
        }
      ],
      "stateMutability": "view",
      "type": "function",
      "constant": true
    },
    {
      "inputs": [],
      "name": "owner",
      "outputs": [
        {
          "internalType": "address",
          "name": "",
          "type": "address"
        }
      ],
      "stateMutability": "view",
      "type": "function",
      "constant": true
    },
    {
      "inputs": [],
      "name": "getOwner",
      "outputs": [
        {
          "internalType": "address",
          "name": "",
          "type": "address"
        }
      ],
      "stateMutability": "view",
      "type": "function",
      "constant": true
    },
    {
      "inputs": [],
      "name": "transfer",
      "outputs": [],
      "stateMutability": "payable",
      "type": "function",
      "payable": true
    },
    {
      "inputs": [
        {
          "internalType": "uint256",
          "name": "withdrawAmount",
          "type": "uint256"
        }
      ],
      "name": "withdraw",
      "outputs": [],
      "stateMutability": "nonpayable",
      "type": "function"
    }
  ],
  "bytecode": "0x60806040526000805534801561001457600080fd5b5033600160006101000a81548173ffffffffffffffffffffffffffffffffffffffff021916908373ffffffffffffffffffffffffffffffffffffffff160217905550610501806100656000396000f3fe60806040526004361061004a5760003560e01c80632e1a7d4d1461004f578063893d20e8146100785780638a4068dd146100a35780638da5cb5b146100ad578063af7f2c9b146100d8575b600080fd5b34801561005b57600080fd5b50610076600480360381019061007191906102f0565b610103565b005b34801561008457600080fd5b5061008d6101f1565b60405161009a919061035e565b60405180910390f35b6100ab61021b565b005b3480156100b957600080fd5b506100c2610289565b6040516100cf919061035e565b60405180910390f35b3480156100e457600080fd5b506100ed6102af565b6040516100fa9190610388565b60405180910390f35b671bc16d674ec8000081111580156101685750600160009054906101000a900473ffffffffffffffffffffffffffffffffffffffff1673ffffffffffffffffffffffffffffffffffffffff163373ffffffffffffffffffffffffffffffffffffffff16145b6101a7576040517f08c379a000000000000000000000000000000000000000000000000000000000815260040161019e90610426565b60405180910390fd5b3373ffffffffffffffffffffffffffffffffffffffff166108fc829081150290604051600060405180830381858888f193505050501580156101ed573d6000803e3d6000fd5b5050565b6000600160009054906101000a900473ffffffffffffffffffffffffffffffffffffffff16905090565b33600260008054815260200190815260200160002060006101000a81548173ffffffffffffffffffffffffffffffffffffffff021916908373ffffffffffffffffffffffffffffffffffffffff16021790555060016000808282546102809190610475565b92505081905550565b600160009054906101000a900473ffffffffffffffffffffffffffffffffffffffff1681565b60005481565b600080fd5b6000819050919050565b6102cd816102ba565b81146102d857600080fd5b50565b6000813590506102ea816102c4565b92915050565b600060208284031215610306576103056102b5565b5b6000610314848285016102db565b91505092915050565b600073ffffffffffffffffffffffffffffffffffffffff82169050919050565b60006103488261031d565b9050919050565b6103588161033d565b82525050565b6000602082019050610373600083018461034f565b92915050565b610382816102ba565b82525050565b600060208201905061039d6000830184610379565b92915050565b600082825260208201905092915050565b7f43616e6e6f74207769746864726177206d6f7265207468616e2032206574686560008201527f7200000000000000000000000000000000000000000000000000000000000000602082015250565b60006104106021836103a3565b915061041b826103b4565b604082019050919050565b6000602082019050818103600083015261043f81610403565b9050919050565b7f4e487b7100000000000000000000000000000000000000000000000000000000600052601160045260246000fd5b6000610480826102ba565b915061048b836102ba565b9250827fffffffffffffffffffffffffffffffffffffffffffffffffffffffffffffffff038211156104c0576104bf610446565b5b82820190509291505056fea2646970667358221220a3e2d6549dd4c487cfb87ec078da61beeff3a98cf86a74329655451874d530c764736f6c634300080f0033",
  "immutableReferences": {},
  "source": "// SPDX-License-Identifier: MIT\r\npragma solidity >=0.4.22 <0.9.0;\r\n\r\ncontract Funder {\r\n    uint256 public numOfFunders=0;\r\n    address public owner;\r\n    constructor(){\r\n        owner=msg.sender;\r\n    }\r\n    mapping(uint256 => address) private funders;\r\n     \r\n    function getOwner() public view returns(address){\r\n        return owner;\r\n    }\r\n    function transfer() external payable {\r\n        funders[numOfFunders] = msg.sender;\r\n        numOfFunders+=1;\r\n    }\r\n\r\n    function withdraw(uint256 withdrawAmount) external {\r\n        require(\r\n            withdrawAmount <= 2000000000000000000 && msg.sender==owner,\r\n            \"Cannot withdraw more than 2 ether\"\r\n        );\r\n        payable(msg.sender).transfer(withdrawAmount);\r\n    }\r\n}\r\n",
  "sourcePath": "H:\\Block chain\\Projects\\Fund\\contracts\\funder.sol",
  "compiler": {
    "name": "solc",
    "version": "0.8.15+commit.e14f2714.Emscripten.clang"
  },
  "schemaVersion": "3.4.11",
  "updatedAt": "2022-12-03T20:24:48.022Z",
  "networkType": "ethereum",
  "devdoc": {
    "kind": "dev",
    "methods": {},
    "version": 1
  },
  "userdoc": {
    "kind": "user",
    "methods": {},
    "version": 1
  }
}